{
  "contractName": "DonorContract",
  "abi": [
    {
      "inputs": [
        {
          "internalType": "string",
          "name": "_fullname",
          "type": "string"
        },
        {
          "internalType": "uint256",
          "name": "_age",
          "type": "uint256"
        },
        {
          "internalType": "string",
          "name": "_gender",
          "type": "string"
        },
        {
          "internalType": "string",
          "name": "_medical_id",
          "type": "string"
        },
        {
          "internalType": "string",
          "name": "_blood_type",
          "type": "string"
        },
        {
          "internalType": "string",
          "name": "_organ",
          "type": "string"
        },
        {
          "internalType": "uint256",
          "name": "_weight",
          "type": "uint256"
        },
        {
          "internalType": "uint256",
          "name": "_height",
          "type": "uint256"
        }
      ],
      "name": "setPledge",
      "outputs": [],
      "stateMutability": "nonpayable",
      "type": "function"
    },
    {
      "inputs": [
        {
          "internalType": "string",
          "name": "_fullname",
          "type": "string"
        },
        {
          "internalType": "uint256",
          "name": "_age",
          "type": "uint256"
        },
        {
          "internalType": "string",
          "name": "_gender",
          "type": "string"
        },
        {
          "internalType": "string",
          "name": "_medical_id",
          "type": "string"
        },
        {
          "internalType": "string",
          "name": "_blood_type",
          "type": "string"
        },
        {
          "internalType": "string",
          "name": "_organ",
          "type": "string"
        },
        {
          "internalType": "uint256",
          "name": "_weight",
          "type": "uint256"
        },
        {
          "internalType": "uint256",
          "name": "_height",
          "type": "uint256"
        }
      ],
      "name": "setDonors",
      "outputs": [],
      "stateMutability": "nonpayable",
      "type": "function"
    },
    {
      "inputs": [
        {
          "internalType": "string",
          "name": "_fullname",
          "type": "string"
        },
        {
          "internalType": "uint256",
          "name": "_age",
          "type": "uint256"
        },
        {
          "internalType": "string",
          "name": "_gender",
          "type": "string"
        },
        {
          "internalType": "string",
          "name": "_medical_id",
          "type": "string"
        },
        {
          "internalType": "string",
          "name": "_blood_type",
          "type": "string"
        },
        {
          "internalType": "string",
          "name": "_organ",
          "type": "string"
        },
        {
          "internalType": "uint256",
          "name": "_weight",
          "type": "uint256"
        },
        {
          "internalType": "uint256",
          "name": "_height",
          "type": "uint256"
        }
      ],
      "name": "setPatients",
      "outputs": [],
      "stateMutability": "nonpayable",
      "type": "function"
    },
    {
      "inputs": [
        {
          "internalType": "string",
          "name": "_medical_id",
          "type": "string"
        }
      ],
      "name": "getPledge",
      "outputs": [
        {
          "internalType": "string",
          "name": "",
          "type": "string"
        },
        {
          "internalType": "uint256",
          "name": "",
          "type": "uint256"
        },
        {
          "internalType": "string",
          "name": "",
          "type": "string"
        },
        {
          "internalType": "string",
          "name": "",
          "type": "string"
        },
        {
          "internalType": "string",
          "name": "",
          "type": "string"
        },
        {
          "internalType": "uint256",
          "name": "",
          "type": "uint256"
        },
        {
          "internalType": "uint256",
          "name": "",
          "type": "uint256"
        }
      ],
      "stateMutability": "view",
      "type": "function",
      "constant": true
    },
    {
      "inputs": [
        {
          "internalType": "string",
          "name": "_medical_id",
          "type": "string"
        }
      ],
      "name": "getDonor",
      "outputs": [
        {
          "internalType": "string",
          "name": "",
          "type": "string"
        },
        {
          "internalType": "uint256",
          "name": "",
          "type": "uint256"
        },
        {
          "internalType": "string",
          "name": "",
          "type": "string"
        },
        {
          "internalType": "string",
          "name": "",
          "type": "string"
        },
        {
          "internalType": "string",
          "name": "",
          "type": "string"
        },
        {
          "internalType": "uint256",
          "name": "",
          "type": "uint256"
        },
        {
          "internalType": "uint256",
          "name": "",
          "type": "uint256"
        }
      ],
      "stateMutability": "view",
      "type": "function",
      "constant": true
    },
    {
      "inputs": [
        {
          "internalType": "string",
          "name": "_medical_id",
          "type": "string"
        }
      ],
      "name": "getPatient",
      "outputs": [
        {
          "internalType": "string",
          "name": "",
          "type": "string"
        },
        {
          "internalType": "uint256",
          "name": "",
          "type": "uint256"
        },
        {
          "internalType": "string",
          "name": "",
          "type": "string"
        },
        {
          "internalType": "string",
          "name": "",
          "type": "string"
        },
        {
          "internalType": "string",
          "name": "",
          "type": "string"
        },
        {
          "internalType": "uint256",
          "name": "",
          "type": "uint256"
        },
        {
          "internalType": "uint256",
          "name": "",
          "type": "uint256"
        }
      ],
      "stateMutability": "view",
      "type": "function",
      "constant": true
    },
    {
      "inputs": [
        {
          "internalType": "string",
          "name": "_medical_id",
          "type": "string"
        }
      ],
      "name": "validatePledge",
      "outputs": [
        {
          "internalType": "bool",
          "name": "",
          "type": "bool"
        }
      ],
      "stateMutability": "view",
      "type": "function",
      "constant": true
    },
    {
      "inputs": [
        {
          "internalType": "string",
          "name": "_medical_id",
          "type": "string"
        }
      ],
      "name": "validateDonor",
      "outputs": [
        {
          "internalType": "bool",
          "name": "",
          "type": "bool"
        }
      ],
      "stateMutability": "view",
      "type": "function",
      "constant": true
    },
    {
      "inputs": [
        {
          "internalType": "string",
          "name": "_medical_id",
          "type": "string"
        }
      ],
      "name": "validatePatient",
      "outputs": [
        {
          "internalType": "bool",
          "name": "",
          "type": "bool"
        }
      ],
      "stateMutability": "view",
      "type": "function",
      "constant": true
    },
    {
      "inputs": [],
      "name": "getAllPledgeIDs",
      "outputs": [
        {
          "internalType": "string[]",
          "name": "",
          "type": "string[]"
        }
      ],
      "stateMutability": "view",
      "type": "function",
      "constant": true
    },
    {
      "inputs": [],
      "name": "getAllDonorIDs",
      "outputs": [
        {
          "internalType": "string[]",
          "name": "",
          "type": "string[]"
        }
      ],
      "stateMutability": "view",
      "type": "function",
      "constant": true
    },
    {
      "inputs": [],
      "name": "getAllPatientIDs",
      "outputs": [
        {
          "internalType": "string[]",
          "name": "",
          "type": "string[]"
        }
      ],
      "stateMutability": "view",
      "type": "function",
      "constant": true
    },
    {
      "inputs": [],
      "name": "getCountOfPledges",
      "outputs": [
        {
          "internalType": "uint256",
          "name": "",
          "type": "uint256"
        }
      ],
      "stateMutability": "view",
      "type": "function",
      "constant": true
    },
    {
      "inputs": [],
      "name": "getCountOfDonors",
      "outputs": [
        {
          "internalType": "uint256",
          "name": "",
          "type": "uint256"
        }
      ],
      "stateMutability": "view",
      "type": "function",
      "constant": true
    },
    {
      "inputs": [],
      "name": "getCountOfPatients",
      "outputs": [
        {
          "internalType": "uint256",
          "name": "",
          "type": "uint256"
        }
      ],
      "stateMutability": "view",
      "type": "function",
      "constant": true
    }
  ],
  "bytecode": "0x608060405234801561001057600080fd5b50611607806100206000396000f3fe608060405234801561001057600080fd5b50600436106100f55760003560e01c806389d53d0011610097578063b5dd296811610066578063b5dd2968146101d9578063d0544a8d146101ec578063e79a7a2e146101f4578063ef1215c31461020757600080fd5b806389d53d00146101a45780639b811209146101b6578063b3885610146101c9578063b5d0f004146101d157600080fd5b80635f6b957d116100d35780635f6b957d1461015357806360e488f3146101765780636302486b14610189578063778b5f251461019c57600080fd5b806322e5ce5f146100fa57806325ead1951461010f57806331dad7321461012d575b600080fd5b61010d61010836600461128a565b61021a565b005b610117610463565b60405161012491906113d5565b60405180910390f35b61014061013b366004611437565b61053c565b6040516101249796959493929190611474565b610166610161366004611437565b610878565b6040519015158152602001610124565b61010d61018436600461128a565b6108fe565b61010d61019736600461128a565b610b3c565b610117610d7a565b6004545b604051908152602001610124565b6101666101c4366004611437565b610e4a565b6005546101a8565b6003546101a8565b6101406101e7366004611437565b610e83565b610117610f64565b610140610202366004611437565b611034565b610166610215366004611437565b611115565b8460405160200161022b91906114de565b6040516020818303038152906040528051906020012060008660405161025191906114de565b90815260200160405180910390206003016040516020016102729190611535565b60405160208183030381529060405280519060200120141561029357600080fd5b876000866040516102a491906114de565b908152602001604051809103902060000190805190602001906102c892919061114e565b50866000866040516102da91906114de565b9081526020016040518091039020600101819055508560008660405161030091906114de565b9081526020016040518091039020600201908051906020019061032492919061114e565b508460008660405161033691906114de565b9081526020016040518091039020600301908051906020019061035a92919061114e565b508360008660405161036c91906114de565b9081526020016040518091039020600401908051906020019061039092919061114e565b50826000866040516103a291906114de565b908152602001604051809103902060050190805190602001906103c692919061114e565b50816000866040516103d891906114de565b908152602001604051809103902060060181905550806000866040516103fe91906114de565b9081526040516020918190038201902060070191909155600380546001810182556000919091528651610458927fc2575a0e9e593c00f959f8c92f12db2869c3395a3b0502d05e2516446f71f85b9092019188019061114e565b505050505050505050565b60606003805480602002602001604051908101604052809291908181526020016000905b828210156105335783829060005260206000200180546104a6906114fa565b80601f01602080910402602001604051908101604052809291908181526020018280546104d2906114fa565b801561051f5780601f106104f45761010080835404028352916020019161051f565b820191906000526020600020905b81548152906001019060200180831161050257829003601f168201915b505050505081526020019060010190610487565b50505050905090565b60606000606080606060008060018860405161055891906114de565b90815260405190819003602001812090600190610576908b906114de565b90815260200160405180910390206001015460018a60405161059891906114de565b908152602001604051809103902060020160018b6040516105b991906114de565b908152602001604051809103902060040160018c6040516105da91906114de565b908152602001604051809103902060050160018d6040516105fb91906114de565b90815260200160405180910390206006015460018e60405161061d91906114de565b90815260200160405180910390206007015486805461063b906114fa565b80601f0160208091040260200160405190810160405280929190818152602001828054610667906114fa565b80156106b45780601f10610689576101008083540402835291602001916106b4565b820191906000526020600020905b81548152906001019060200180831161069757829003601f168201915b505050505096508480546106c7906114fa565b80601f01602080910402602001604051908101604052809291908181526020018280546106f3906114fa565b80156107405780601f1061071557610100808354040283529160200191610740565b820191906000526020600020905b81548152906001019060200180831161072357829003601f168201915b50505050509450838054610753906114fa565b80601f016020809104026020016040519081016040528092919081815260200182805461077f906114fa565b80156107cc5780601f106107a1576101008083540402835291602001916107cc565b820191906000526020600020905b8154815290600101906020018083116107af57829003601f168201915b505050505093508280546107df906114fa565b80601f016020809104026020016040519081016040528092919081815260200182805461080b906114fa565b80156108585780601f1061082d57610100808354040283529160200191610858565b820191906000526020600020905b81548152906001019060200180831161083b57829003601f168201915b505050505092509650965096509650965096509650919395979092949650565b60008160405160200161088b91906114de565b604051602081830303815290604052805190602001206000836040516108b191906114de565b90815260200160405180910390206003016040516020016108d29190611535565b6040516020818303038152906040528051906020012014156108f657506001919050565b506000919050565b8460405160200161090f91906114de565b6040516020818303038152906040528051906020012060018660405161093591906114de565b90815260200160405180910390206003016040516020016109569190611535565b60405160208183030381529060405280519060200120141561097757600080fd5b8760028660405161098891906114de565b908152602001604051809103902060000190805190602001906109ac92919061114e565b50866002866040516109be91906114de565b908152602001604051809103902060010181905550856002866040516109e491906114de565b90815260200160405180910390206002019080519060200190610a0892919061114e565b5084600286604051610a1a91906114de565b90815260200160405180910390206003019080519060200190610a3e92919061114e565b5083600286604051610a5091906114de565b90815260200160405180910390206004019080519060200190610a7492919061114e565b5082600286604051610a8691906114de565b90815260200160405180910390206005019080519060200190610aaa92919061114e565b5081600286604051610abc91906114de565b90815260200160405180910390206006018190555080600286604051610ae291906114de565b9081526040516020918190038201902060070191909155600580546001810182556000919091528651610458927f036b6384b5eca791c62761152d0c79bb0604c104a5fb6f4eb0703f3154bb3db09092019188019061114e565b84604051602001610b4d91906114de565b60405160208183030381529060405280519060200120600186604051610b7391906114de565b9081526020016040518091039020600301604051602001610b949190611535565b604051602081830303815290604052805190602001201415610bb557600080fd5b87600186604051610bc691906114de565b90815260200160405180910390206000019080519060200190610bea92919061114e565b5086600186604051610bfc91906114de565b90815260200160405180910390206001018190555085600186604051610c2291906114de565b90815260200160405180910390206002019080519060200190610c4692919061114e565b5084600186604051610c5891906114de565b90815260200160405180910390206003019080519060200190610c7c92919061114e565b5083600186604051610c8e91906114de565b90815260200160405180910390206004019080519060200190610cb292919061114e565b5082600186604051610cc491906114de565b90815260200160405180910390206005019080519060200190610ce892919061114e565b5081600186604051610cfa91906114de565b90815260200160405180910390206006018190555080600186604051610d2091906114de565b9081526040516020918190038201902060070191909155600480546001810182556000919091528651610458927f8a35acfbc15ff81a39ae7d344fd709f28e8600b4aa8c65c6b64bfe7fe36bd19b9092019188019061114e565b60606004805480602002602001604051908101604052809291908181526020016000905b82821015610533578382906000526020600020018054610dbd906114fa565b80601f0160208091040260200160405190810160405280929190818152602001828054610de9906114fa565b8015610e365780601f10610e0b57610100808354040283529160200191610e36565b820191906000526020600020905b815481529060010190602001808311610e1957829003601f168201915b505050505081526020019060010190610d9e565b600081604051602001610e5d91906114de565b604051602081830303815290604052805190602001206001836040516108b191906114de565b606060006060806060600080600088604051610e9f91906114de565b90815260405190819003602001812090600090610ebd908b906114de565b90815260200160405180910390206001015460008a604051610edf91906114de565b908152602001604051809103902060020160008b604051610f0091906114de565b908152602001604051809103902060040160008c604051610f2191906114de565b908152602001604051809103902060050160008d604051610f4291906114de565b90815260200160405180910390206006015460008e60405161061d91906114de565b60606005805480602002602001604051908101604052809291908181526020016000905b82821015610533578382906000526020600020018054610fa7906114fa565b80601f0160208091040260200160405190810160405280929190818152602001828054610fd3906114fa565b80156110205780601f10610ff557610100808354040283529160200191611020565b820191906000526020600020905b81548152906001019060200180831161100357829003601f168201915b505050505081526020019060010190610f88565b60606000606080606060008060028860405161105091906114de565b9081526040519081900360200181209060029061106e908b906114de565b90815260200160405180910390206001015460028a60405161109091906114de565b908152602001604051809103902060020160028b6040516110b191906114de565b908152602001604051809103902060040160028c6040516110d291906114de565b908152602001604051809103902060050160028d6040516110f391906114de565b90815260200160405180910390206006015460028e60405161061d91906114de565b60008160405160200161112891906114de565b604051602081830303815290604052805190602001206002836040516108b191906114de565b82805461115a906114fa565b90600052602060002090601f01602090048101928261117c57600085556111c2565b82601f1061119557805160ff19168380011785556111c2565b828001600101855582156111c2579182015b828111156111c25782518255916020019190600101906111a7565b506111ce9291506111d2565b5090565b5b808211156111ce57600081556001016111d3565b634e487b7160e01b600052604160045260246000fd5b600082601f83011261120e57600080fd5b813567ffffffffffffffff80821115611229576112296111e7565b604051601f8301601f19908116603f01168101908282118183101715611251576112516111e7565b8160405283815286602085880101111561126a57600080fd5b836020870160208301376000602085830101528094505050505092915050565b600080600080600080600080610100898b0312156112a757600080fd5b883567ffffffffffffffff808211156112bf57600080fd5b6112cb8c838d016111fd565b995060208b0135985060408b01359150808211156112e857600080fd5b6112f48c838d016111fd565b975060608b013591508082111561130a57600080fd5b6113168c838d016111fd565b965060808b013591508082111561132c57600080fd5b6113388c838d016111fd565b955060a08b013591508082111561134e57600080fd5b5061135b8b828c016111fd565b93505060c0890135915060e089013590509295985092959890939650565b60005b8381101561139457818101518382015260200161137c565b838111156113a3576000848401525b50505050565b600081518084526113c1816020860160208601611379565b601f01601f19169290920160200192915050565b6000602080830181845280855180835260408601915060408160051b870101925083870160005b8281101561142a57603f198886030184526114188583516113a9565b945092850192908501906001016113fc565b5092979650505050505050565b60006020828403121561144957600080fd5b813567ffffffffffffffff81111561146057600080fd5b61146c848285016111fd565b949350505050565b60e08152600061148760e083018a6113a9565b886020840152828103604084015261149f81896113a9565b905082810360608401526114b381886113a9565b905082810360808401526114c781876113a9565b60a0840195909552505060c0015295945050505050565b600082516114f0818460208701611379565b9190910192915050565b600181811c9082168061150e57607f821691505b6020821081141561152f57634e487b7160e01b600052602260045260246000fd5b50919050565b600080835481600182811c91508083168061155157607f831692505b602080841082141561157157634e487b7160e01b86526022600452602486fd5b8180156115855760018114611596576115c3565b60ff198616895284890196506115c3565b60008a81526020902060005b868110156115bb5781548b8201529085019083016115a2565b505084890196505b50949897505050505050505056fea264697066735822122019f10338982dc75faa3697d9c00907046a0f61f523e8445cc37baae1413b953a64736f6c634300080a0033",
  "immutableReferences": {},
  "source": "// SPDX-License-Identifier: MIT\r\npragma solidity ^0.8.10;\r\n\r\ncontract DonorContract {\r\n    struct pledged\r\n    {\r\n        string fullname;\r\n        uint age;\r\n        string gender;\r\n        string medical_id;\r\n        string blood_type;\r\n        string organ;\r\n        uint weight;\r\n        uint height;\r\n    }\r\n\r\n    struct donor\r\n    {\r\n        string fullname;\r\n        uint age;\r\n        string gender;\r\n        string medical_id;\r\n        string blood_type;\r\n        string organ;\r\n        uint weight;\r\n        uint height;\r\n    }\r\n\r\n    struct patient\r\n    {\r\n        string fullname;\r\n        uint age;\r\n        string gender;\r\n        string medical_id;\r\n        string blood_type;\r\n        string organ;\r\n        uint weight;\r\n        uint height;\r\n    }\r\n    mapping ( string =>pledged ) pledgedMap;\r\n    mapping ( string =>donor ) donorMap;\r\n    mapping ( string =>patient) patientMap;\r\n\r\n    string[] PledgedArray;\r\n    string[] DonorsArray;\r\n    string[] PatientsArray;\r\n\r\n    function setPledge(string memory _fullname, uint _age, string memory _gender, string memory _medical_id,\r\n                       string memory _blood_type, string memory _organ, uint _weight, uint _height)\r\n    public\r\n    {\r\n        require ( keccak256(abi.encodePacked((pledgedMap[_medical_id].medical_id))) != keccak256(abi.encodePacked(_medical_id)));\r\n        pledgedMap[_medical_id].fullname = _fullname;\r\n        pledgedMap[_medical_id].age = _age;\r\n        pledgedMap[_medical_id].gender = _gender;\r\n        pledgedMap[_medical_id].medical_id = _medical_id;\r\n        pledgedMap[_medical_id].blood_type = _blood_type;\r\n        pledgedMap[_medical_id].organ = _organ;\r\n        pledgedMap[_medical_id].weight = _weight;\r\n        pledgedMap[_medical_id].height = _height;\r\n\r\n        PledgedArray.push(_medical_id);\r\n    }\r\n\r\n    function setDonors(string memory _fullname, uint _age, string memory _gender, string memory _medical_id,\r\n                       string memory _blood_type, string memory _organ, uint _weight, uint _height)\r\n    public\r\n    {\r\n        require ( keccak256(abi.encodePacked((donorMap[_medical_id].medical_id))) != keccak256(abi.encodePacked(_medical_id)));\r\n        donorMap[_medical_id].fullname = _fullname;\r\n        donorMap[_medical_id].age = _age;\r\n        donorMap[_medical_id].gender = _gender;\r\n        donorMap[_medical_id].medical_id = _medical_id;\r\n        donorMap[_medical_id].blood_type = _blood_type;\r\n        donorMap[_medical_id].organ = _organ;\r\n        donorMap[_medical_id].weight = _weight;\r\n        donorMap[_medical_id].height = _height;\r\n\r\n        DonorsArray.push(_medical_id);\r\n    }\r\n\r\n    function setPatients(string memory _fullname, uint _age, string memory _gender, string memory _medical_id,\r\n                       string memory _blood_type, string memory _organ, uint _weight, uint _height)\r\n    public\r\n    {\r\n        require ( keccak256(abi.encodePacked((donorMap[_medical_id].medical_id))) != keccak256(abi.encodePacked(_medical_id)));\r\n        patientMap[_medical_id].fullname = _fullname;\r\n        patientMap[_medical_id].age = _age;\r\n        patientMap[_medical_id].gender = _gender;\r\n        patientMap[_medical_id].medical_id = _medical_id;\r\n        patientMap[_medical_id].blood_type = _blood_type;\r\n        patientMap[_medical_id].organ = _organ;\r\n        patientMap[_medical_id].weight = _weight;\r\n        patientMap[_medical_id].height = _height;\r\n\r\n        PatientsArray.push(_medical_id);\r\n    }\r\n\r\n    function getPledge(string memory _medical_id) view public returns(string memory, uint, string memory, string memory, string memory, uint, uint)\r\n    {\r\n        return\r\n        (\r\n            pledgedMap[_medical_id].fullname,\r\n            pledgedMap[_medical_id].age,\r\n            pledgedMap[_medical_id].gender,\r\n            pledgedMap[_medical_id].blood_type,\r\n            pledgedMap[_medical_id].organ,\r\n            pledgedMap[_medical_id].weight,\r\n            pledgedMap[_medical_id].height\r\n        );\r\n    }\r\n\r\n    function getDonor(string memory _medical_id) view public returns(string memory, uint, string memory, string memory, string memory, uint, uint)\r\n    {\r\n        return\r\n        (\r\n            donorMap[_medical_id].fullname,\r\n            donorMap[_medical_id].age,\r\n            donorMap[_medical_id].gender,\r\n            donorMap[_medical_id].blood_type,\r\n            donorMap[_medical_id].organ,\r\n            donorMap[_medical_id].weight,\r\n            donorMap[_medical_id].height\r\n        );\r\n    }\r\n\r\n    function getPatient(string memory _medical_id) view public returns(string memory, uint, string memory, string memory, string memory, uint, uint)\r\n    {\r\n        return\r\n        (\r\n            patientMap[_medical_id].fullname,\r\n            patientMap[_medical_id].age,\r\n            patientMap[_medical_id].gender,\r\n            patientMap[_medical_id].blood_type,\r\n            patientMap[_medical_id].organ,\r\n            patientMap[_medical_id].weight,\r\n            patientMap[_medical_id].height\r\n        );\r\n    }\r\n\r\n    function validatePledge(string memory _medical_id) view public returns(bool)\r\n    {\r\n\r\n     if (keccak256(abi.encodePacked((pledgedMap[_medical_id].medical_id))) == keccak256(abi.encodePacked(_medical_id)))\r\n        return true;\r\n     else return false;\r\n\r\n    }\r\n\r\n    function validateDonor(string memory _medical_id) view public returns(bool)\r\n    {\r\n\r\n     if (keccak256(abi.encodePacked((donorMap[_medical_id].medical_id))) == keccak256(abi.encodePacked(_medical_id)))\r\n        return true;\r\n     else return false;\r\n\r\n    }\r\n\r\n    function validatePatient(string memory _medical_id) view public returns(bool)\r\n    {\r\n\r\n     if (keccak256(abi.encodePacked((patientMap[_medical_id].medical_id))) == keccak256(abi.encodePacked(_medical_id)))\r\n        return true;\r\n     else return false;\r\n\r\n    }\r\n\r\n    function getAllPledgeIDs() view public returns(string[] memory)\r\n    {\r\n        return PledgedArray;\r\n    }\r\n\r\n    function getAllDonorIDs() view public returns(string[] memory)\r\n    {\r\n        return DonorsArray;\r\n    }\r\n\r\n    function getAllPatientIDs() view public returns(string[] memory)\r\n    {\r\n        return PatientsArray;\r\n    }\r\n\r\n    function getCountOfPledges() view public returns (uint)\r\n    {\r\n        return PledgedArray.length;\r\n    }\r\n\r\n    function getCountOfDonors() view public returns (uint)\r\n    {\r\n        return DonorsArray.length;\r\n    }\r\n\r\n    function getCountOfPatients() view public returns (uint)\r\n    {\r\n        return PatientsArray.length;\r\n    }\r\n\r\n}",
  "sourcePath": "D:\\HiFiProjects\\8th sem proj\\Kidney_blockchain\\contracts\\DonorContract.sol",
  "compiler": {
    "name": "solc",
    "version": "0.8.10+commit.fc410830.Emscripten.clang"
  },
  "schemaVersion": "3.4.16",
  "updatedAt": "2024-03-03T16:58:09.332Z",
  "networkType": "ethereum",
  "devdoc": {
    "kind": "dev",
    "methods": {},
    "version": 1
  },
  "userdoc": {
    "kind": "user",
    "methods": {},
    "version": 1
  }
}