{
  "contractName": "DonorContract",
  "abi": [
    {
      "inputs": [],
      "name": "transplantRecordCount",
      "outputs": [
        {
          "internalType": "uint256",
          "name": "",
          "type": "uint256"
        }
      ],
      "stateMutability": "view",
      "type": "function"
    },
    {
      "inputs": [
        {
          "internalType": "uint256",
          "name": "",
          "type": "uint256"
        }
      ],
      "name": "transplantRecords",
      "outputs": [
        {
          "internalType": "uint256",
          "name": "transplant_id",
          "type": "uint256"
        },
        {
          "internalType": "string",
          "name": "donor_id",
          "type": "string"
        },
        {
          "internalType": "string",
          "name": "patient_id",
          "type": "string"
        },
        {
          "internalType": "string",
          "name": "organ",
          "type": "string"
        },
        {
          "internalType": "uint256",
          "name": "donor_type",
          "type": "uint256"
        },
        {
          "internalType": "uint256",
          "name": "timestamp",
          "type": "uint256"
        }
      ],
      "stateMutability": "view",
      "type": "function"
    },
    {
      "inputs": [
        {
          "internalType": "string",
          "name": "_fullname",
          "type": "string"
        },
        {
          "internalType": "uint256",
          "name": "_age",
          "type": "uint256"
        },
        {
          "internalType": "string",
          "name": "_gender",
          "type": "string"
        },
        {
          "internalType": "string",
          "name": "_medical_id",
          "type": "string"
        },
        {
          "internalType": "string",
          "name": "_blood_type",
          "type": "string"
        },
        {
          "internalType": "string",
          "name": "_organ",
          "type": "string"
        },
        {
          "internalType": "uint256",
          "name": "_weight",
          "type": "uint256"
        },
        {
          "internalType": "uint256",
          "name": "_height",
          "type": "uint256"
        }
      ],
      "name": "setPledge",
      "outputs": [],
      "stateMutability": "nonpayable",
      "type": "function"
    },
    {
      "inputs": [
        {
          "internalType": "string",
          "name": "_fullname",
          "type": "string"
        },
        {
          "internalType": "uint256",
          "name": "_age",
          "type": "uint256"
        },
        {
          "internalType": "string",
          "name": "_gender",
          "type": "string"
        },
        {
          "internalType": "string",
          "name": "_medical_id",
          "type": "string"
        },
        {
          "internalType": "string",
          "name": "_blood_type",
          "type": "string"
        },
        {
          "internalType": "string",
          "name": "_organ",
          "type": "string"
        },
        {
          "internalType": "uint256",
          "name": "_weight",
          "type": "uint256"
        },
        {
          "internalType": "uint256",
          "name": "_height",
          "type": "uint256"
        }
      ],
      "name": "setDonors",
      "outputs": [],
      "stateMutability": "nonpayable",
      "type": "function"
    },
    {
      "inputs": [
        {
          "internalType": "string",
          "name": "_fullname",
          "type": "string"
        },
        {
          "internalType": "uint256",
          "name": "_age",
          "type": "uint256"
        },
        {
          "internalType": "string",
          "name": "_gender",
          "type": "string"
        },
        {
          "internalType": "string",
          "name": "_medical_id",
          "type": "string"
        },
        {
          "internalType": "string",
          "name": "_blood_type",
          "type": "string"
        },
        {
          "internalType": "string",
          "name": "_organ",
          "type": "string"
        },
        {
          "internalType": "uint256",
          "name": "_weight",
          "type": "uint256"
        },
        {
          "internalType": "uint256",
          "name": "_height",
          "type": "uint256"
        }
      ],
      "name": "setPatients",
      "outputs": [],
      "stateMutability": "nonpayable",
      "type": "function"
    },
    {
      "inputs": [
        {
          "internalType": "string",
          "name": "_medical_id",
          "type": "string"
        }
      ],
      "name": "getPledge",
      "outputs": [
        {
          "internalType": "string",
          "name": "",
          "type": "string"
        },
        {
          "internalType": "uint256",
          "name": "",
          "type": "uint256"
        },
        {
          "internalType": "string",
          "name": "",
          "type": "string"
        },
        {
          "internalType": "string",
          "name": "",
          "type": "string"
        },
        {
          "internalType": "string",
          "name": "",
          "type": "string"
        },
        {
          "internalType": "uint256",
          "name": "",
          "type": "uint256"
        },
        {
          "internalType": "uint256",
          "name": "",
          "type": "uint256"
        }
      ],
      "stateMutability": "view",
      "type": "function"
    },
    {
      "inputs": [
        {
          "internalType": "string",
          "name": "_medical_id",
          "type": "string"
        }
      ],
      "name": "getDonor",
      "outputs": [
        {
          "internalType": "string",
          "name": "",
          "type": "string"
        },
        {
          "internalType": "uint256",
          "name": "",
          "type": "uint256"
        },
        {
          "internalType": "string",
          "name": "",
          "type": "string"
        },
        {
          "internalType": "string",
          "name": "",
          "type": "string"
        },
        {
          "internalType": "string",
          "name": "",
          "type": "string"
        },
        {
          "internalType": "uint256",
          "name": "",
          "type": "uint256"
        },
        {
          "internalType": "uint256",
          "name": "",
          "type": "uint256"
        }
      ],
      "stateMutability": "view",
      "type": "function"
    },
    {
      "inputs": [
        {
          "internalType": "string",
          "name": "_medical_id",
          "type": "string"
        }
      ],
      "name": "getPatient",
      "outputs": [
        {
          "internalType": "string",
          "name": "",
          "type": "string"
        },
        {
          "internalType": "uint256",
          "name": "",
          "type": "uint256"
        },
        {
          "internalType": "string",
          "name": "",
          "type": "string"
        },
        {
          "internalType": "string",
          "name": "",
          "type": "string"
        },
        {
          "internalType": "string",
          "name": "",
          "type": "string"
        },
        {
          "internalType": "uint256",
          "name": "",
          "type": "uint256"
        },
        {
          "internalType": "uint256",
          "name": "",
          "type": "uint256"
        }
      ],
      "stateMutability": "view",
      "type": "function"
    },
    {
      "inputs": [
        {
          "internalType": "string",
          "name": "_donorMedicalId",
          "type": "string"
        },
        {
          "internalType": "string",
          "name": "_patientMedicalId",
          "type": "string"
        },
        {
          "internalType": "string",
          "name": "_organ",
          "type": "string"
        },
        {
          "internalType": "uint256",
          "name": "_donor_type",
          "type": "uint256"
        }
      ],
      "name": "addTransplantRecord",
      "outputs": [],
      "stateMutability": "nonpayable",
      "type": "function"
    },
    {
      "inputs": [
        {
          "internalType": "string",
          "name": "_medical_id",
          "type": "string"
        }
      ],
      "name": "validatePledge",
      "outputs": [
        {
          "internalType": "bool",
          "name": "",
          "type": "bool"
        }
      ],
      "stateMutability": "view",
      "type": "function"
    },
    {
      "inputs": [
        {
          "internalType": "string",
          "name": "_medical_id",
          "type": "string"
        }
      ],
      "name": "validateDonor",
      "outputs": [
        {
          "internalType": "bool",
          "name": "",
          "type": "bool"
        }
      ],
      "stateMutability": "view",
      "type": "function"
    },
    {
      "inputs": [
        {
          "internalType": "string",
          "name": "_medical_id",
          "type": "string"
        }
      ],
      "name": "validatePatient",
      "outputs": [
        {
          "internalType": "bool",
          "name": "",
          "type": "bool"
        }
      ],
      "stateMutability": "view",
      "type": "function"
    },
    {
      "inputs": [],
      "name": "getAllPledgeIDs",
      "outputs": [
        {
          "internalType": "string[]",
          "name": "",
          "type": "string[]"
        }
      ],
      "stateMutability": "view",
      "type": "function"
    },
    {
      "inputs": [],
      "name": "getAllDonorIDs",
      "outputs": [
        {
          "internalType": "string[]",
          "name": "",
          "type": "string[]"
        }
      ],
      "stateMutability": "view",
      "type": "function"
    },
    {
      "inputs": [],
      "name": "getAllPatientIDs",
      "outputs": [
        {
          "internalType": "string[]",
          "name": "",
          "type": "string[]"
        }
      ],
      "stateMutability": "view",
      "type": "function"
    },
    {
      "inputs": [],
      "name": "getCountOfPledges",
      "outputs": [
        {
          "internalType": "uint256",
          "name": "",
          "type": "uint256"
        }
      ],
      "stateMutability": "view",
      "type": "function"
    },
    {
      "inputs": [],
      "name": "getCountOfDonors",
      "outputs": [
        {
          "internalType": "uint256",
          "name": "",
          "type": "uint256"
        }
      ],
      "stateMutability": "view",
      "type": "function"
    },
    {
      "inputs": [],
      "name": "getCountOfPatients",
      "outputs": [
        {
          "internalType": "uint256",
          "name": "",
          "type": "uint256"
        }
      ],
      "stateMutability": "view",
      "type": "function"
    }
  ],
  "bytecode": "0x608060405234801561001057600080fd5b50611c1c806100206000396000f3fe608060405234801561001057600080fd5b50600436106101165760003560e01c8063a4c361ce116100a2578063b5dd296811610071578063b5dd296814610228578063be88c19e1461023b578063d0544a8d1461024e578063e79a7a2e14610256578063ef1215c31461026957600080fd5b8063a4c361ce146101ea578063a838f50b146101f3578063b388561014610218578063b5d0f0041461022057600080fd5b806360e488f3116100e957806360e488f3146101975780636302486b146101aa578063778b5f25146101bd57806389d53d00146101c55780639b811209146101d757600080fd5b806322e5ce5f1461011b57806325ead1951461013057806331dad7321461014e5780635f6b957d14610174575b600080fd5b61012e610129366004611778565b61027c565b005b6101386104c5565b60405161014591906118c3565b60405180910390f35b61016161015c366004611925565b61059e565b6040516101459796959493929190611962565b610187610182366004611925565b6108da565b6040519015158152602001610145565b61012e6101a5366004611778565b61098e565b61012e6101b8366004611778565b610bcc565b610138610e0a565b6005545b604051908152602001610145565b6101876101e5366004611925565b610eda565b6101c960085481565b6102066102013660046119cc565b610f62565b604051610145969594939291906119e5565b6006546101c9565b6004546101c9565b610161610236366004611925565b61112f565b61012e610249366004611a3a565b611210565b610138611403565b610161610264366004611925565b6114d3565b610187610277366004611925565b6115b4565b8460405160200161028d9190611aca565b604051602081830303815290604052805190602001206000866040516102b39190611aca565b90815260200160405180910390206003016040516020016102d49190611b21565b6040516020818303038152906040528051906020012014156102f557600080fd5b876000866040516103069190611aca565b9081526020016040518091039020600001908051906020019061032a92919061163c565b508660008660405161033c9190611aca565b908152602001604051809103902060010181905550856000866040516103629190611aca565b9081526020016040518091039020600201908051906020019061038692919061163c565b50846000866040516103989190611aca565b908152602001604051809103902060030190805190602001906103bc92919061163c565b50836000866040516103ce9190611aca565b908152602001604051809103902060040190805190602001906103f292919061163c565b50826000866040516104049190611aca565b9081526020016040518091039020600501908051906020019061042892919061163c565b508160008660405161043a9190611aca565b908152602001604051809103902060070181905550806000866040516104609190611aca565b90815260405160209181900382019020600801919091556004805460018101825560009190915286516104ba927f8a35acfbc15ff81a39ae7d344fd709f28e8600b4aa8c65c6b64bfe7fe36bd19b9092019188019061163c565b505050505050505050565b60606004805480602002602001604051908101604052809291908181526020016000905b8282101561059557838290600052602060002001805461050890611ae6565b80601f016020809104026020016040519081016040528092919081815260200182805461053490611ae6565b80156105815780601f1061055657610100808354040283529160200191610581565b820191906000526020600020905b81548152906001019060200180831161056457829003601f168201915b5050505050815260200190600101906104e9565b50505050905090565b6060600060608060606000806001886040516105ba9190611aca565b908152604051908190036020018120906001906105d8908b90611aca565b90815260200160405180910390206001015460018a6040516105fa9190611aca565b908152602001604051809103902060020160018b60405161061b9190611aca565b908152602001604051809103902060040160018c60405161063c9190611aca565b908152602001604051809103902060050160018d60405161065d9190611aca565b90815260200160405180910390206007015460018e60405161067f9190611aca565b90815260200160405180910390206008015486805461069d90611ae6565b80601f01602080910402602001604051908101604052809291908181526020018280546106c990611ae6565b80156107165780601f106106eb57610100808354040283529160200191610716565b820191906000526020600020905b8154815290600101906020018083116106f957829003601f168201915b5050505050965084805461072990611ae6565b80601f016020809104026020016040519081016040528092919081815260200182805461075590611ae6565b80156107a25780601f10610777576101008083540402835291602001916107a2565b820191906000526020600020905b81548152906001019060200180831161078557829003601f168201915b505050505094508380546107b590611ae6565b80601f01602080910402602001604051908101604052809291908181526020018280546107e190611ae6565b801561082e5780601f106108035761010080835404028352916020019161082e565b820191906000526020600020905b81548152906001019060200180831161081157829003601f168201915b5050505050935082805461084190611ae6565b80601f016020809104026020016040519081016040528092919081815260200182805461086d90611ae6565b80156108ba5780601f1061088f576101008083540402835291602001916108ba565b820191906000526020600020905b81548152906001019060200180831161089d57829003601f168201915b505050505092509650965096509650965096509650919395979092949650565b6000816040516020016108ed9190611aca565b604051602081830303815290604052805190602001206000836040516109139190611aca565b90815260200160405180910390206003016040516020016109349190611b21565b6040516020818303038152906040528051906020012014801561097957506000826040516109629190611aca565b908152602001604051809103902060060154600114155b1561098657506001919050565b506000919050565b8460405160200161099f9190611aca565b604051602081830303815290604052805190602001206001866040516109c59190611aca565b90815260200160405180910390206003016040516020016109e69190611b21565b604051602081830303815290604052805190602001201415610a0757600080fd5b87600286604051610a189190611aca565b90815260200160405180910390206000019080519060200190610a3c92919061163c565b5086600286604051610a4e9190611aca565b90815260200160405180910390206001018190555085600286604051610a749190611aca565b90815260200160405180910390206002019080519060200190610a9892919061163c565b5084600286604051610aaa9190611aca565b90815260200160405180910390206003019080519060200190610ace92919061163c565b5083600286604051610ae09190611aca565b90815260200160405180910390206004019080519060200190610b0492919061163c565b5082600286604051610b169190611aca565b90815260200160405180910390206005019080519060200190610b3a92919061163c565b5081600286604051610b4c9190611aca565b90815260200160405180910390206007018190555080600286604051610b729190611aca565b90815260405160209181900382019020600801919091556006805460018101825560009190915286516104ba927ff652222313e28459528d920b65115c16c04f3efc82aaedc97be59f3f377c0d3f9092019188019061163c565b84604051602001610bdd9190611aca565b60405160208183030381529060405280519060200120600186604051610c039190611aca565b9081526020016040518091039020600301604051602001610c249190611b21565b604051602081830303815290604052805190602001201415610c4557600080fd5b87600186604051610c569190611aca565b90815260200160405180910390206000019080519060200190610c7a92919061163c565b5086600186604051610c8c9190611aca565b90815260200160405180910390206001018190555085600186604051610cb29190611aca565b90815260200160405180910390206002019080519060200190610cd692919061163c565b5084600186604051610ce89190611aca565b90815260200160405180910390206003019080519060200190610d0c92919061163c565b5083600186604051610d1e9190611aca565b90815260200160405180910390206004019080519060200190610d4292919061163c565b5082600186604051610d549190611aca565b90815260200160405180910390206005019080519060200190610d7892919061163c565b5081600186604051610d8a9190611aca565b90815260200160405180910390206007018190555080600186604051610db09190611aca565b90815260405160209181900382019020600801919091556005805460018101825560009190915286516104ba927f036b6384b5eca791c62761152d0c79bb0604c104a5fb6f4eb0703f3154bb3db09092019188019061163c565b60606005805480602002602001604051908101604052809291908181526020016000905b82821015610595578382906000526020600020018054610e4d90611ae6565b80601f0160208091040260200160405190810160405280929190818152602001828054610e7990611ae6565b8015610ec65780601f10610e9b57610100808354040283529160200191610ec6565b820191906000526020600020905b815481529060010190602001808311610ea957829003601f168201915b505050505081526020019060010190610e2e565b600081604051602001610eed9190611aca565b60405160208183030381529060405280519060200120600183604051610f139190611aca565b9081526020016040518091039020600301604051602001610f349190611b21565b6040516020818303038152906040528051906020012014801561097957506001826040516109629190611aca565b60036020526000908152604090208054600182018054919291610f8490611ae6565b80601f0160208091040260200160405190810160405280929190818152602001828054610fb090611ae6565b8015610ffd5780601f10610fd257610100808354040283529160200191610ffd565b820191906000526020600020905b815481529060010190602001808311610fe057829003601f168201915b50505050509080600201805461101290611ae6565b80601f016020809104026020016040519081016040528092919081815260200182805461103e90611ae6565b801561108b5780601f106110605761010080835404028352916020019161108b565b820191906000526020600020905b81548152906001019060200180831161106e57829003601f168201915b5050505050908060030180546110a090611ae6565b80601f01602080910402602001604051908101604052809291908181526020018280546110cc90611ae6565b80156111195780601f106110ee57610100808354040283529160200191611119565b820191906000526020600020905b8154815290600101906020018083116110fc57829003601f168201915b5050505050908060040154908060050154905086565b60606000606080606060008060008860405161114b9190611aca565b90815260405190819003602001812090600090611169908b90611aca565b90815260200160405180910390206001015460008a60405161118b9190611aca565b908152602001604051809103902060020160008b6040516111ac9190611aca565b908152602001604051809103902060040160008c6040516111cd9190611aca565b908152602001604051809103902060050160008d6040516111ee9190611aca565b90815260200160405180910390206007015460008e60405161067f9190611aca565b61121984610eda565b61126a5760405162461bcd60e51b815260206004820152601860248201527f496e76616c696420646f6e6f72206d65646963616c204944000000000000000060448201526064015b60405180910390fd5b611273836115b4565b6112bf5760405162461bcd60e51b815260206004820152601a60248201527f496e76616c69642070617469656e74206d65646963616c2049440000000000006044820152606401611261565b6040805160c081018252600854808252602080830188815283850188905260608401879052608084018690524260a08501819052600093845260038352949092208351815591518051611318926001850192019061163c565b506040820151805161133491600284019160209091019061163c565b506060820151805161135091600384019160209091019061163c565b506080820151816004015560a08201518160050155905050600180866040516113799190611aca565b90815260200160405180910390206006018190555060016002856040516113a09190611aca565b90815260405190819003602001902060060155600880546007805460018101825560009182527fa66cc928b5edb82af9bd49922954155ab7b0942694bea4ce44661d9a8736c688018290559091906113f783611bbd565b91905055505050505050565b60606006805480602002602001604051908101604052809291908181526020016000905b8282101561059557838290600052602060002001805461144690611ae6565b80601f016020809104026020016040519081016040528092919081815260200182805461147290611ae6565b80156114bf5780601f10611494576101008083540402835291602001916114bf565b820191906000526020600020905b8154815290600101906020018083116114a257829003601f168201915b505050505081526020019060010190611427565b6060600060608060606000806002886040516114ef9190611aca565b9081526040519081900360200181209060029061150d908b90611aca565b90815260200160405180910390206001015460028a60405161152f9190611aca565b908152602001604051809103902060020160028b6040516115509190611aca565b908152602001604051809103902060040160028c6040516115719190611aca565b908152602001604051809103902060050160028d6040516115929190611aca565b90815260200160405180910390206007015460028e60405161067f9190611aca565b6000816040516020016115c79190611aca565b604051602081830303815290604052805190602001206002836040516115ed9190611aca565b908152602001604051809103902060030160405160200161160e9190611b21565b6040516020818303038152906040528051906020012014801561097957506002826040516109629190611aca565b82805461164890611ae6565b90600052602060002090601f01602090048101928261166a57600085556116b0565b82601f1061168357805160ff19168380011785556116b0565b828001600101855582156116b0579182015b828111156116b0578251825591602001919060010190611695565b506116bc9291506116c0565b5090565b5b808211156116bc57600081556001016116c1565b634e487b7160e01b600052604160045260246000fd5b600082601f8301126116fc57600080fd5b813567ffffffffffffffff80821115611717576117176116d5565b604051601f8301601f19908116603f0116810190828211818310171561173f5761173f6116d5565b8160405283815286602085880101111561175857600080fd5b836020870160208301376000602085830101528094505050505092915050565b600080600080600080600080610100898b03121561179557600080fd5b883567ffffffffffffffff808211156117ad57600080fd5b6117b98c838d016116eb565b995060208b0135985060408b01359150808211156117d657600080fd5b6117e28c838d016116eb565b975060608b01359150808211156117f857600080fd5b6118048c838d016116eb565b965060808b013591508082111561181a57600080fd5b6118268c838d016116eb565b955060a08b013591508082111561183c57600080fd5b506118498b828c016116eb565b93505060c0890135915060e089013590509295985092959890939650565b60005b8381101561188257818101518382015260200161186a565b83811115611891576000848401525b50505050565b600081518084526118af816020860160208601611867565b601f01601f19169290920160200192915050565b6000602080830181845280855180835260408601915060408160051b870101925083870160005b8281101561191857603f19888603018452611906858351611897565b945092850192908501906001016118ea565b5092979650505050505050565b60006020828403121561193757600080fd5b813567ffffffffffffffff81111561194e57600080fd5b61195a848285016116eb565b949350505050565b60e08152600061197560e083018a611897565b886020840152828103604084015261198d8189611897565b905082810360608401526119a18188611897565b905082810360808401526119b58187611897565b60a0840195909552505060c0015295945050505050565b6000602082840312156119de57600080fd5b5035919050565b86815260c0602082015260006119fe60c0830188611897565b8281036040840152611a108188611897565b90508281036060840152611a248187611897565b6080840195909552505060a00152949350505050565b60008060008060808587031215611a5057600080fd5b843567ffffffffffffffff80821115611a6857600080fd5b611a74888389016116eb565b95506020870135915080821115611a8a57600080fd5b611a96888389016116eb565b94506040870135915080821115611aac57600080fd5b50611ab9878288016116eb565b949793965093946060013593505050565b60008251611adc818460208701611867565b9190910192915050565b600181811c90821680611afa57607f821691505b60208210811415611b1b57634e487b7160e01b600052602260045260246000fd5b50919050565b600080835481600182811c915080831680611b3d57607f831692505b6020808410821415611b5d57634e487b7160e01b86526022600452602486fd5b818015611b715760018114611b8257611baf565b60ff19861689528489019650611baf565b60008a81526020902060005b86811015611ba75781548b820152908501908301611b8e565b505084890196505b509498975050505050505050565b6000600019821415611bdf57634e487b7160e01b600052601160045260246000fd5b506001019056fea264697066735822122088980fae7369e862e7b39ad424f92ef972da013b4e49ad50690bd9dd858c463a64736f6c634300080a0033",
  "immutableReferences": {},
  "source": "// SPDX-License-Identifier: MIT\r\npragma solidity ^0.8.10;\r\n\r\ncontract DonorContract {\r\n    struct pledged\r\n    {\r\n        string fullname;\r\n        uint age;\r\n        string gender;\r\n        string medical_id;\r\n        string blood_type;\r\n        string organ;\r\n        uint transplant_status;\r\n        uint weight;\r\n        uint height;\r\n    }\r\n\r\n    struct donor\r\n    {\r\n        string fullname;\r\n        uint age;\r\n        string gender;\r\n        string medical_id;\r\n        string blood_type;\r\n        string organ;\r\n        uint transplant_status;\r\n        uint weight;\r\n        uint height;\r\n    }\r\n\r\n    struct patient\r\n    {\r\n        string fullname;\r\n        uint age;\r\n        string gender;\r\n        string medical_id;\r\n        string blood_type;\r\n        string organ;\r\n        uint transplant_status;\r\n        uint weight;\r\n        uint height;\r\n    }\r\n\r\n    struct TransplantRecord {\r\n        uint transplant_id;\r\n        string donor_id;\r\n        string patient_id;\r\n        string organ;\r\n        uint donor_type;\r\n        uint timestamp;\r\n    }\r\n\r\n\r\n    mapping ( string =>pledged ) pledgedMap;\r\n    mapping ( string =>donor ) donorMap;\r\n    mapping ( string =>patient) patientMap;\r\n    mapping (uint => TransplantRecord) public transplantRecords;\r\n\r\n    string[] PledgedArray;\r\n    string[] DonorsArray;\r\n    string[] PatientsArray;\r\n    uint[] TransplantsArray;\r\n    uint public transplantRecordCount;\r\n\r\n    function setPledge(string memory _fullname, uint _age, string memory _gender, string memory _medical_id,\r\n                       string memory _blood_type, string memory _organ, uint _weight, uint _height)\r\n    public\r\n    {\r\n        require ( keccak256(abi.encodePacked((pledgedMap[_medical_id].medical_id))) != keccak256(abi.encodePacked(_medical_id)));\r\n        pledgedMap[_medical_id].fullname = _fullname;\r\n        pledgedMap[_medical_id].age = _age;\r\n        pledgedMap[_medical_id].gender = _gender;\r\n        pledgedMap[_medical_id].medical_id = _medical_id;\r\n        pledgedMap[_medical_id].blood_type = _blood_type;\r\n        pledgedMap[_medical_id].organ = _organ;\r\n        pledgedMap[_medical_id].weight = _weight;\r\n        pledgedMap[_medical_id].height = _height;\r\n\r\n        PledgedArray.push(_medical_id);\r\n    }\r\n\r\n    function setDonors(string memory _fullname, uint _age, string memory _gender, string memory _medical_id,\r\n                       string memory _blood_type, string memory _organ, uint _weight, uint _height)\r\n    public\r\n    {\r\n        require ( keccak256(abi.encodePacked((donorMap[_medical_id].medical_id))) != keccak256(abi.encodePacked(_medical_id)));\r\n        donorMap[_medical_id].fullname = _fullname;\r\n        donorMap[_medical_id].age = _age;\r\n        donorMap[_medical_id].gender = _gender;\r\n        donorMap[_medical_id].medical_id = _medical_id;\r\n        donorMap[_medical_id].blood_type = _blood_type;\r\n        donorMap[_medical_id].organ = _organ;\r\n        donorMap[_medical_id].weight = _weight;\r\n        donorMap[_medical_id].height = _height;\r\n\r\n        DonorsArray.push(_medical_id);\r\n    }\r\n\r\n    function setPatients(string memory _fullname, uint _age, string memory _gender, string memory _medical_id,\r\n                       string memory _blood_type, string memory _organ, uint _weight, uint _height)\r\n    public\r\n    {\r\n        require ( keccak256(abi.encodePacked((donorMap[_medical_id].medical_id))) != keccak256(abi.encodePacked(_medical_id)));\r\n        patientMap[_medical_id].fullname = _fullname;\r\n        patientMap[_medical_id].age = _age;\r\n        patientMap[_medical_id].gender = _gender;\r\n        patientMap[_medical_id].medical_id = _medical_id;\r\n        patientMap[_medical_id].blood_type = _blood_type;\r\n        patientMap[_medical_id].organ = _organ;\r\n        patientMap[_medical_id].weight = _weight;\r\n        patientMap[_medical_id].height = _height;\r\n\r\n        PatientsArray.push(_medical_id);\r\n    }\r\n\r\n    function getPledge(string memory _medical_id) view public returns(string memory, uint, string memory, string memory, string memory, uint, uint)\r\n    {\r\n        return\r\n        (\r\n            pledgedMap[_medical_id].fullname,\r\n            pledgedMap[_medical_id].age,\r\n            pledgedMap[_medical_id].gender,\r\n            pledgedMap[_medical_id].blood_type,\r\n            pledgedMap[_medical_id].organ,\r\n            pledgedMap[_medical_id].weight,\r\n            pledgedMap[_medical_id].height\r\n        );\r\n    }\r\n\r\n    function getDonor(string memory _medical_id) view public returns(string memory, uint, string memory, string memory, string memory, uint, uint)\r\n    {\r\n        return\r\n        (\r\n            donorMap[_medical_id].fullname,\r\n            donorMap[_medical_id].age,\r\n            donorMap[_medical_id].gender,\r\n            donorMap[_medical_id].blood_type,\r\n            donorMap[_medical_id].organ,\r\n            donorMap[_medical_id].weight,\r\n            donorMap[_medical_id].height\r\n        );\r\n    }\r\n\r\n    function getPatient(string memory _medical_id) view public returns(string memory, uint, string memory, string memory, string memory, uint, uint)\r\n    {\r\n        return\r\n        (\r\n            patientMap[_medical_id].fullname,\r\n            patientMap[_medical_id].age,\r\n            patientMap[_medical_id].gender,\r\n            patientMap[_medical_id].blood_type,\r\n            patientMap[_medical_id].organ,\r\n            patientMap[_medical_id].weight,\r\n            patientMap[_medical_id].height\r\n        );\r\n    }\r\n\r\n    function addTransplantRecord(string memory _donorMedicalId, string memory _patientMedicalId, string memory _organ,uint _donor_type)\r\n        public\r\n    {\r\n        require(validateDonor(_donorMedicalId), \"Invalid donor medical ID\");\r\n        require(validatePatient(_patientMedicalId), \"Invalid patient medical ID\");\r\n\r\n        uint timestamp = block.timestamp;\r\n\r\n        transplantRecords[transplantRecordCount] = TransplantRecord({\r\n            transplant_id: transplantRecordCount,\r\n            donor_id: _donorMedicalId,\r\n            patient_id: _patientMedicalId,\r\n            organ: _organ,\r\n            donor_type: _donor_type,\r\n            timestamp: timestamp\r\n        });\r\n\r\n        donorMap[_donorMedicalId].transplant_status = 1;\r\n        patientMap[_patientMedicalId].transplant_status = 1;\r\n\r\n        TransplantsArray.push(transplantRecordCount);\r\n        transplantRecordCount++;\r\n    }\r\n\r\n    function validatePledge(string memory _medical_id) view public returns(bool)\r\n    {\r\n\r\n     if ((keccak256(abi.encodePacked((pledgedMap[_medical_id].medical_id))) == keccak256(abi.encodePacked(_medical_id))) && pledgedMap[_medical_id].transplant_status != 1)\r\n        return true;\r\n     else return false;\r\n\r\n    }\r\n\r\n    function validateDonor(string memory _medical_id) view public returns(bool)\r\n    {\r\n\r\n     if ((keccak256(abi.encodePacked((donorMap[_medical_id].medical_id))) == keccak256(abi.encodePacked(_medical_id))) && donorMap[_medical_id].transplant_status != 1)\r\n        return true;\r\n     else return false;\r\n\r\n    }\r\n\r\n    function validatePatient(string memory _medical_id) view public returns(bool)\r\n    {\r\n\r\n     if ((keccak256(abi.encodePacked((patientMap[_medical_id].medical_id))) == keccak256(abi.encodePacked(_medical_id))) && patientMap[_medical_id].transplant_status != 1)\r\n        return true;\r\n     else return false;\r\n\r\n    }\r\n\r\n    function getAllPledgeIDs() view public returns(string[] memory)\r\n    {\r\n        return PledgedArray;\r\n    }\r\n\r\n    function getAllDonorIDs() view public returns(string[] memory)\r\n    {\r\n        return DonorsArray;\r\n    }\r\n\r\n    function getAllPatientIDs() view public returns(string[] memory)\r\n    {\r\n        return PatientsArray;\r\n    }\r\n\r\n    function getCountOfPledges() view public returns (uint)\r\n    {\r\n        return PledgedArray.length;\r\n    }\r\n\r\n    function getCountOfDonors() view public returns (uint)\r\n    {\r\n        return DonorsArray.length;\r\n    }\r\n\r\n    function getCountOfPatients() view public returns (uint)\r\n    {\r\n        return PatientsArray.length;\r\n    }\r\n\r\n}",
  "sourcePath": "D:\\HiFiProjects\\8th sem proj\\Kidney_blockchain\\contracts\\DonorContract.sol",
  "compiler": {
    "name": "solc",
    "version": "0.8.10+commit.fc410830.Emscripten.clang"
  },
  "schemaVersion": "3.4.16",
  "updatedAt": "2024-03-09T10:40:42.135Z",
  "devdoc": {
    "kind": "dev",
    "methods": {},
    "version": 1
  },
  "userdoc": {
    "kind": "user",
    "methods": {},
    "version": 1
  }
}