{
  "contractName": "KidneyDonorRegistry",
  "abi": [
    {
      "inputs": [
        {
          "internalType": "uint256",
          "name": "",
          "type": "uint256"
        }
      ],
      "name": "donors",
      "outputs": [
        {
          "internalType": "uint256",
          "name": "id",
          "type": "uint256"
        },
        {
          "internalType": "uint256",
          "name": "donorId",
          "type": "uint256"
        },
        {
          "internalType": "uint256",
          "name": "hospitalId",
          "type": "uint256"
        },
        {
          "internalType": "uint256",
          "name": "dateOfTransplant",
          "type": "uint256"
        },
        {
          "internalType": "uint256",
          "name": "doctorId",
          "type": "uint256"
        },
        {
          "internalType": "uint256",
          "name": "donorType",
          "type": "uint256"
        }
      ],
      "stateMutability": "view",
      "type": "function",
      "constant": true
    },
    {
      "inputs": [
        {
          "internalType": "uint256",
          "name": "_id",
          "type": "uint256"
        },
        {
          "internalType": "uint256",
          "name": "_donorId",
          "type": "uint256"
        },
        {
          "internalType": "uint256",
          "name": "_hospitalId",
          "type": "uint256"
        },
        {
          "internalType": "uint256",
          "name": "_dateOfTransplant",
          "type": "uint256"
        },
        {
          "internalType": "uint256",
          "name": "_doctorId",
          "type": "uint256"
        },
        {
          "internalType": "uint256",
          "name": "_donorType",
          "type": "uint256"
        }
      ],
      "name": "addDonor",
      "outputs": [],
      "stateMutability": "nonpayable",
      "type": "function"
    }
  ],
  "bytecode": "0x608060405234801561001057600080fd5b50610226806100206000396000f3fe608060405234801561001057600080fd5b50600436106100365760003560e01c80634abfa1631461003b578063a6d74fa8146100af575b600080fd5b61007e610049366004610194565b600060208190529081526040902080546001820154600283015460038401546004850154600590950154939492939192909186565b604080519687526020870195909552938501929092526060840152608083015260a082015260c00160405180910390f35b6100c26100bd3660046101ad565b6100c4565b005b600086815260208190526040902054156101335760405162461bcd60e51b815260206004820152602660248201527f5265636f72642077697468207468652073616d6520494420616c72656164792060448201526565786973747360d01b606482015260840160405180910390fd5b6040805160c0810182528781526020808201978852818301968752606082019586526080820194855260a082019384526000988952889052962095518655935160018601559151600285015551600384015551600483015551600590910155565b6000602082840312156101a657600080fd5b5035919050565b60008060008060008060c087890312156101c657600080fd5b505084359660208601359650604086013595606081013595506080810135945060a001359250905056fea2646970667358221220f8d5ac7622adf7a5ee10947610562edf3700864b680461eb2fe3d2877475464a64736f6c634300080a0033",
  "immutableReferences": {},
  "source": "// contracts/Transaction.sol\r\n// SPDX-License-Identifier: MIT\r\npragma solidity ^0.8.0;\r\n\r\ncontract KidneyDonorRegistry {\r\n    struct Donor {\r\n        uint id;\r\n        uint donorId;\r\n        uint hospitalId;\r\n        uint dateOfTransplant;\r\n        uint doctorId;\r\n        uint donorType;\r\n    }\r\n\r\n    mapping(uint => Donor) public donors;\r\n\r\n    function addDonor(\r\n        uint _id,\r\n        uint _donorId,\r\n        uint _hospitalId,\r\n        uint _dateOfTransplant,\r\n        uint _doctorId,\r\n        uint _donorType\r\n    ) public {\r\n        require(donors[_id].id == 0, \"Record with the same ID already exists\");\r\n\r\n        donors[_id] = Donor({\r\n            id: _id,\r\n            donorId: _donorId,\r\n            hospitalId: _hospitalId,\r\n            dateOfTransplant: _dateOfTransplant,\r\n            doctorId: _doctorId,\r\n            donorType: _donorType\r\n        });\r\n    }\r\n}",
  "sourcePath": "C:\\Users\\aakas\\Downloads\\blockchain\\kidney-donation-blockchain\\contracts\\Transaction.sol",
  "compiler": {
    "name": "solc",
    "version": "0.8.10+commit.fc410830.Emscripten.clang"
  },
  "schemaVersion": "3.4.16",
  "updatedAt": "2024-03-04T16:46:14.263Z",
  "networkType": "ethereum",
  "devdoc": {
    "kind": "dev",
    "methods": {},
    "version": 1
  },
  "userdoc": {
    "kind": "user",
    "methods": {},
    "version": 1
  }
}